{
  "_format": "hh-sol-artifact-1",
  "contractName": "ProviderRegistry",
  "sourceName": "src/hedera/ProviderRegistry.sol",
  "abi": [
    {
      "inputs": [
        {
          "internalType": "address",
          "name": "_fileToken",
          "type": "address"
        }
      ],
      "stateMutability": "nonpayable",
      "type": "constructor"
    },
    {
      "inputs": [],
      "name": "InsufficientRewardPool",
      "type": "error"
    },
    {
      "inputs": [],
      "name": "InsufficientStake",
      "type": "error"
    },
    {
      "inputs": [],
      "name": "InvalidUptime",
      "type": "error"
    },
    {
      "inputs": [],
      "name": "NotAuthorizedReporter",
      "type": "error"
    },
    {
      "inputs": [],
      "name": "NotProviderOwner",
      "type": "error"
    },
    {
      "inputs": [
        {
          "internalType": "address",
          "name": "owner",
          "type": "address"
        }
      ],
      "name": "OwnableInvalidOwner",
      "type": "error"
    },
    {
      "inputs": [
        {
          "internalType": "address",
          "name": "account",
          "type": "address"
        }
      ],
      "name": "OwnableUnauthorizedAccount",
      "type": "error"
    },
    {
      "inputs": [],
      "name": "ProviderAlreadyRegistered",
      "type": "error"
    },
    {
      "inputs": [],
      "name": "ProviderIsSlashed",
      "type": "error"
    },
    {
      "inputs": [],
      "name": "ProviderNotActive",
      "type": "error"
    },
    {
      "inputs": [],
      "name": "ProviderNotFound",
      "type": "error"
    },
    {
      "inputs": [],
      "name": "ReentrancyGuardReentrantCall",
      "type": "error"
    },
    {
      "inputs": [],
      "name": "ZeroAddress",
      "type": "error"
    },
    {
      "anonymous": false,
      "inputs": [
        {
          "indexed": true,
          "internalType": "uint256",
          "name": "providerId",
          "type": "uint256"
        },
        {
          "indexed": false,
          "internalType": "bool",
          "name": "success",
          "type": "bool"
        },
        {
          "indexed": false,
          "internalType": "uint256",
          "name": "reward",
          "type": "uint256"
        }
      ],
      "name": "JobCompleted",
      "type": "event"
    },
    {
      "anonymous": false,
      "inputs": [
        {
          "indexed": true,
          "internalType": "address",
          "name": "previousOwner",
          "type": "address"
        },
        {
          "indexed": true,
          "internalType": "address",
          "name": "newOwner",
          "type": "address"
        }
      ],
      "name": "OwnershipTransferred",
      "type": "event"
    },
    {
      "anonymous": false,
      "inputs": [
        {
          "indexed": true,
          "internalType": "uint256",
          "name": "providerId",
          "type": "uint256"
        }
      ],
      "name": "ProviderDeactivated",
      "type": "event"
    },
    {
      "anonymous": false,
      "inputs": [
        {
          "indexed": true,
          "internalType": "uint256",
          "name": "providerId",
          "type": "uint256"
        }
      ],
      "name": "ProviderReactivated",
      "type": "event"
    },
    {
      "anonymous": false,
      "inputs": [
        {
          "indexed": true,
          "internalType": "uint256",
          "name": "providerId",
          "type": "uint256"
        },
        {
          "indexed": true,
          "internalType": "address",
          "name": "owner",
          "type": "address"
        },
        {
          "indexed": false,
          "internalType": "string",
          "name": "name",
          "type": "string"
        },
        {
          "indexed": false,
          "internalType": "uint256",
          "name": "stakedAmount",
          "type": "uint256"
        }
      ],
      "name": "ProviderRegistered",
      "type": "event"
    },
    {
      "anonymous": false,
      "inputs": [
        {
          "indexed": true,
          "internalType": "uint256",
          "name": "providerId",
          "type": "uint256"
        },
        {
          "indexed": false,
          "internalType": "uint256",
          "name": "slashedAmount",
          "type": "uint256"
        },
        {
          "indexed": false,
          "internalType": "string",
          "name": "reason",
          "type": "string"
        }
      ],
      "name": "ProviderSlashed",
      "type": "event"
    },
    {
      "anonymous": false,
      "inputs": [
        {
          "indexed": true,
          "internalType": "uint256",
          "name": "providerId",
          "type": "uint256"
        },
        {
          "indexed": false,
          "internalType": "uint256",
          "name": "amount",
          "type": "uint256"
        },
        {
          "indexed": false,
          "internalType": "uint256",
          "name": "newTotal",
          "type": "uint256"
        }
      ],
      "name": "ProviderStakeIncreased",
      "type": "event"
    },
    {
      "anonymous": false,
      "inputs": [
        {
          "indexed": true,
          "internalType": "uint256",
          "name": "providerId",
          "type": "uint256"
        },
        {
          "indexed": false,
          "internalType": "uint256",
          "name": "amount",
          "type": "uint256"
        },
        {
          "indexed": false,
          "internalType": "uint256",
          "name": "remaining",
          "type": "uint256"
        }
      ],
      "name": "ProviderStakeWithdrawn",
      "type": "event"
    },
    {
      "anonymous": false,
      "inputs": [
        {
          "indexed": true,
          "internalType": "uint256",
          "name": "providerId",
          "type": "uint256"
        },
        {
          "indexed": true,
          "internalType": "address",
          "name": "owner",
          "type": "address"
        },
        {
          "indexed": false,
          "internalType": "uint256",
          "name": "amount",
          "type": "uint256"
        }
      ],
      "name": "RewardClaimed",
      "type": "event"
    },
    {
      "anonymous": false,
      "inputs": [
        {
          "indexed": true,
          "internalType": "uint256",
          "name": "providerId",
          "type": "uint256"
        },
        {
          "indexed": false,
          "internalType": "uint256",
          "name": "uptime",
          "type": "uint256"
        },
        {
          "indexed": true,
          "internalType": "address",
          "name": "reporter",
          "type": "address"
        }
      ],
      "name": "UptimeReported",
      "type": "event"
    },
    {
      "inputs": [
        {
          "internalType": "address",
          "name": "reporter",
          "type": "address"
        }
      ],
      "name": "addReporter",
      "outputs": [],
      "stateMutability": "nonpayable",
      "type": "function"
    },
    {
      "inputs": [
        {
          "internalType": "address",
          "name": "",
          "type": "address"
        }
      ],
      "name": "authorizedReporters",
      "outputs": [
        {
          "internalType": "bool",
          "name": "",
          "type": "bool"
        }
      ],
      "stateMutability": "view",
      "type": "function"
    },
    {
      "inputs": [
        {
          "internalType": "uint256",
          "name": "providerId",
          "type": "uint256"
        }
      ],
      "name": "claimRewards",
      "outputs": [],
      "stateMutability": "nonpayable",
      "type": "function"
    },
    {
      "inputs": [
        {
          "internalType": "uint256",
          "name": "providerId",
          "type": "uint256"
        }
      ],
      "name": "deactivateProvider",
      "outputs": [],
      "stateMutability": "nonpayable",
      "type": "function"
    },
    {
      "inputs": [],
      "name": "fileToken",
      "outputs": [
        {
          "internalType": "address",
          "name": "",
          "type": "address"
        }
      ],
      "stateMutability": "view",
      "type": "function"
    },
    {
      "inputs": [
        {
          "internalType": "uint256",
          "name": "amount",
          "type": "uint256"
        }
      ],
      "name": "fundRewardPool",
      "outputs": [],
      "stateMutability": "nonpayable",
      "type": "function"
    },
    {
      "inputs": [
        {
          "internalType": "uint256",
          "name": "providerId",
          "type": "uint256"
        }
      ],
      "name": "getProvider",
      "outputs": [
        {
          "components": [
            {
              "internalType": "uint256",
              "name": "providerId",
              "type": "uint256"
            },
            {
              "internalType": "address",
              "name": "owner",
              "type": "address"
            },
            {
              "internalType": "string",
              "name": "name",
              "type": "string"
            },
            {
              "internalType": "string",
              "name": "endpoint",
              "type": "string"
            },
            {
              "internalType": "string[]",
              "name": "capabilities",
              "type": "string[]"
            },
            {
              "internalType": "uint256",
              "name": "stakedAmount",
              "type": "uint256"
            },
            {
              "internalType": "uint256",
              "name": "uptime",
              "type": "uint256"
            },
            {
              "internalType": "uint256",
              "name": "totalJobs",
              "type": "uint256"
            },
            {
              "internalType": "uint256",
              "name": "successfulJobs",
              "type": "uint256"
            },
            {
              "internalType": "uint256",
              "name": "totalRewards",
              "type": "uint256"
            },
            {
              "internalType": "uint256",
              "name": "registeredAt",
              "type": "uint256"
            },
            {
              "internalType": "bool",
              "name": "isActive",
              "type": "bool"
            },
            {
              "internalType": "bool",
              "name": "isSlashed",
              "type": "bool"
            }
          ],
          "internalType": "struct ProviderRegistry.Provider",
          "name": "",
          "type": "tuple"
        }
      ],
      "stateMutability": "view",
      "type": "function"
    },
    {
      "inputs": [
        {
          "internalType": "uint256",
          "name": "providerId",
          "type": "uint256"
        }
      ],
      "name": "getSuccessRate",
      "outputs": [
        {
          "internalType": "uint256",
          "name": "",
          "type": "uint256"
        }
      ],
      "stateMutability": "view",
      "type": "function"
    },
    {
      "inputs": [],
      "name": "getTotalProviders",
      "outputs": [
        {
          "internalType": "uint256",
          "name": "",
          "type": "uint256"
        }
      ],
      "stateMutability": "view",
      "type": "function"
    },
    {
      "inputs": [
        {
          "internalType": "uint256",
          "name": "providerId",
          "type": "uint256"
        }
      ],
      "name": "getUptimeReports",
      "outputs": [
        {
          "components": [
            {
              "internalType": "uint256",
              "name": "timestamp",
              "type": "uint256"
            },
            {
              "internalType": "uint256",
              "name": "uptime",
              "type": "uint256"
            },
            {
              "internalType": "address",
              "name": "reporter",
              "type": "address"
            }
          ],
          "internalType": "struct ProviderRegistry.UptimeReport[]",
          "name": "",
          "type": "tuple[]"
        }
      ],
      "stateMutability": "view",
      "type": "function"
    },
    {
      "inputs": [
        {
          "internalType": "uint256",
          "name": "providerId",
          "type": "uint256"
        },
        {
          "internalType": "uint256",
          "name": "amount",
          "type": "uint256"
        }
      ],
      "name": "increaseStake",
      "outputs": [],
      "stateMutability": "nonpayable",
      "type": "function"
    },
    {
      "inputs": [],
      "name": "minimumStake",
      "outputs": [
        {
          "internalType": "uint256",
          "name": "",
          "type": "uint256"
        }
      ],
      "stateMutability": "view",
      "type": "function"
    },
    {
      "inputs": [],
      "name": "owner",
      "outputs": [
        {
          "internalType": "address",
          "name": "",
          "type": "address"
        }
      ],
      "stateMutability": "view",
      "type": "function"
    },
    {
      "inputs": [
        {
          "internalType": "address",
          "name": "",
          "type": "address"
        }
      ],
      "name": "ownerToProvider",
      "outputs": [
        {
          "internalType": "uint256",
          "name": "",
          "type": "uint256"
        }
      ],
      "stateMutability": "view",
      "type": "function"
    },
    {
      "inputs": [
        {
          "internalType": "uint256",
          "name": "",
          "type": "uint256"
        }
      ],
      "name": "providers",
      "outputs": [
        {
          "internalType": "uint256",
          "name": "providerId",
          "type": "uint256"
        },
        {
          "internalType": "address",
          "name": "owner",
          "type": "address"
        },
        {
          "internalType": "string",
          "name": "name",
          "type": "string"
        },
        {
          "internalType": "string",
          "name": "endpoint",
          "type": "string"
        },
        {
          "internalType": "uint256",
          "name": "stakedAmount",
          "type": "uint256"
        },
        {
          "internalType": "uint256",
          "name": "uptime",
          "type": "uint256"
        },
        {
          "internalType": "uint256",
          "name": "totalJobs",
          "type": "uint256"
        },
        {
          "internalType": "uint256",
          "name": "successfulJobs",
          "type": "uint256"
        },
        {
          "internalType": "uint256",
          "name": "totalRewards",
          "type": "uint256"
        },
        {
          "internalType": "uint256",
          "name": "registeredAt",
          "type": "uint256"
        },
        {
          "internalType": "bool",
          "name": "isActive",
          "type": "bool"
        },
        {
          "internalType": "bool",
          "name": "isSlashed",
          "type": "bool"
        }
      ],
      "stateMutability": "view",
      "type": "function"
    },
    {
      "inputs": [
        {
          "internalType": "uint256",
          "name": "providerId",
          "type": "uint256"
        }
      ],
      "name": "reactivateProvider",
      "outputs": [],
      "stateMutability": "nonpayable",
      "type": "function"
    },
    {
      "inputs": [
        {
          "internalType": "uint256",
          "name": "providerId",
          "type": "uint256"
        },
        {
          "internalType": "bool",
          "name": "success",
          "type": "bool"
        },
        {
          "internalType": "uint256",
          "name": "reward",
          "type": "uint256"
        }
      ],
      "name": "recordJob",
      "outputs": [],
      "stateMutability": "nonpayable",
      "type": "function"
    },
    {
      "inputs": [
        {
          "internalType": "string",
          "name": "name",
          "type": "string"
        },
        {
          "internalType": "string",
          "name": "endpoint",
          "type": "string"
        },
        {
          "internalType": "string[]",
          "name": "capabilities",
          "type": "string[]"
        },
        {
          "internalType": "uint256",
          "name": "stakeAmount",
          "type": "uint256"
        }
      ],
      "name": "registerProvider",
      "outputs": [
        {
          "internalType": "uint256",
          "name": "",
          "type": "uint256"
        }
      ],
      "stateMutability": "nonpayable",
      "type": "function"
    },
    {
      "inputs": [
        {
          "internalType": "address",
          "name": "reporter",
          "type": "address"
        }
      ],
      "name": "removeReporter",
      "outputs": [],
      "stateMutability": "nonpayable",
      "type": "function"
    },
    {
      "inputs": [],
      "name": "renounceOwnership",
      "outputs": [],
      "stateMutability": "nonpayable",
      "type": "function"
    },
    {
      "inputs": [
        {
          "internalType": "uint256",
          "name": "providerId",
          "type": "uint256"
        },
        {
          "internalType": "uint256",
          "name": "uptime",
          "type": "uint256"
        }
      ],
      "name": "reportUptime",
      "outputs": [],
      "stateMutability": "nonpayable",
      "type": "function"
    },
    {
      "inputs": [],
      "name": "rewardPool",
      "outputs": [
        {
          "internalType": "uint256",
          "name": "",
          "type": "uint256"
        }
      ],
      "stateMutability": "view",
      "type": "function"
    },
    {
      "inputs": [
        {
          "internalType": "uint256",
          "name": "newMinimum",
          "type": "uint256"
        }
      ],
      "name": "setMinimumStake",
      "outputs": [],
      "stateMutability": "nonpayable",
      "type": "function"
    },
    {
      "inputs": [],
      "name": "totalStaked",
      "outputs": [
        {
          "internalType": "uint256",
          "name": "",
          "type": "uint256"
        }
      ],
      "stateMutability": "view",
      "type": "function"
    },
    {
      "inputs": [
        {
          "internalType": "address",
          "name": "newOwner",
          "type": "address"
        }
      ],
      "name": "transferOwnership",
      "outputs": [],
      "stateMutability": "nonpayable",
      "type": "function"
    },
    {
      "inputs": [
        {
          "internalType": "uint256",
          "name": "",
          "type": "uint256"
        },
        {
          "internalType": "uint256",
          "name": "",
          "type": "uint256"
        }
      ],
      "name": "uptimeReports",
      "outputs": [
        {
          "internalType": "uint256",
          "name": "timestamp",
          "type": "uint256"
        },
        {
          "internalType": "uint256",
          "name": "uptime",
          "type": "uint256"
        },
        {
          "internalType": "address",
          "name": "reporter",
          "type": "address"
        }
      ],
      "stateMutability": "view",
      "type": "function"
    },
    {
      "inputs": [
        {
          "internalType": "uint256",
          "name": "providerId",
          "type": "uint256"
        },
        {
          "internalType": "uint256",
          "name": "amount",
          "type": "uint256"
        }
      ],
      "name": "withdrawStake",
      "outputs": [],
      "stateMutability": "nonpayable",
      "type": "function"
    }
  ],
  "bytecode": "0x60803461010757601f611cea38819003918201601f19168301916001600160401b0383118484101761010c5780849260209460405283398101031261010757516001600160a01b0390818116908190036101075733156100ee57600090815460018060a01b03199033828216178455604051943391167f8be0079c531659141344cd1fd0a4f28419497f9722a3daafe3b4186f6b6457e08580a360018055683635c9adc5dea0000060025581156100df57604093506003541617600355338152600a60205220600160ff19825416179055604051611bc790816101238239f35b63d92e233d60e01b8452600484fd5b604051631e4fbdf760e01b815260006004820152602490fd5b600080fd5b634e487b7160e01b600052604160045260246000fdfe6080604052600436101561001257600080fd5b60003560e01c80630962ef79146116515780631d583e0d14611625578063233e9903146116045780633a41429a146115c15780633f1a48d1146115255780634c5268ae1461143b57806350f3fc8114611355578063540d2748146112e65780635c42d0791461104f5780635de5c2121461100957806366666aa914610feb578063715018a614610f925780637b94937814610d2b5780637c88cdff14610609578063817b1cd2146105eb5780638a650841146105c55780638da5cb5b1461059c5780638db3834714610573578063bec10cde146104de578063c25fcff714610483578063dd8755f21461043a578063e76c199814610359578063ec5ffac21461033b578063f1fdf46914610231578063f20c180c14610213578063f266fab5146101d55763f2fde38b1461014557600080fd5b346101d05760203660031901126101d0576004356001600160a01b03818116918290036101d057610174611868565b81156101b757600054826001600160601b0360a01b821617600055167f8be0079c531659141344cd1fd0a4f28419497f9722a3daafe3b4186f6b6457e0600080a3005b604051631e4fbdf760e01b815260006004820152602490fd5b600080fd5b346101d05760203660031901126101d0576004356001600160a01b038116908190036101d05760005260086020526020604060002054604051908152f35b346101d05760003660031901126101d0576020600454604051908152f35b346101d05761023f366117f3565b610247611924565b8160005260076020526040600020908154156103295760018201546001600160a01b0316330361031757600582019081548181106102fa5761028b82600b92611947565b93019260ff8454168061030c575b6102fa577f858203c09c699ca4b8418ffa3a4638f16c5e92098654ea90e73e201e3d5615559381604094556102d083600654611947565b60065581156102ec575b5082519182526020820152a260018055005b805460ff19169055856102da565b6040516378de4a6960e11b8152600490fd5b506002548110610299565b6040516342f536e160e11b8152600490fd5b60405163b1cd090360e01b8152600490fd5b346101d05760003660031901126101d0576020600254604051908152f35b346101d05760603660031901126101d057600435602435801515908181036101d05760443591610387611868565b8360005260076020526040600020928354156103295760ff600b8501541615610428578360409360077ff66ba33883103a8b6c682ed17652a2c95b67e4ad7d5be173f185f6e649eea32096016103dd8154611894565b90556103f2575b5082519182526020820152a2005b806008600992016104038154611894565b905501610411828254611917565b905561041f81600554611917565b600555856103e4565b604051638017c96b60e01b8152600490fd5b346101d05760203660031901126101d0576004356001600160a01b038116908190036101d057610468611868565b6000908152600a60205260409020805460ff19166001179055005b346101d057610491366117f3565b906000526009602052604060002080548210156101d0576060916104b491611836565b50805490600181015490600260018060a01b03910154169060405192835260208301526040820152f35b346101d0576104ec366117f3565b6104f4611924565b81600052600760205260406000208054156103295760018101546001600160a01b03163303610317577fb07b25260ed5c7a1a40fdfa1f707f83c11ec50eeddc999fcee162e6a3826ce7e91600560409201610550828254611917565b815561055e82600654611917565b6006555482519182526020820152a260018055005b346101d05760003660031901126101d0576003546040516001600160a01b039091168152602090f35b346101d05760003660031901126101d0576000546040516001600160a01b039091168152602090f35b346101d05760203660031901126101d05760206105e3600435611a2d565b604051908152f35b346101d05760003660031901126101d0576020600654604051908152f35b346101d05760803660031901126101d0576004356001600160401b0381116101d057610639903690600401611809565b6024356001600160401b0381116101d057610658903690600401611809565b6001600160401b03604493929335116101d0573660236044350112156101d0576001600160401b0360443560040135116101d0573660246044356004013560051b6044350101116101d0576106ab611924565b600254606435106102fa57336000526008602052604060002054610d19576107096106d7600454611894565b9384600455604051926106e9846116d0565b8584523360208501526106fd3686896118a3565b604085015236916118a3565b606082015261071d604435600401356118e9565b61072a60405191826116ec565b60443560048101358252602401602082015b60246044356004013560051b60443501018210610cd1575050608082015260643560a082015261271060c0820152600060e08201526000610100820152600061012082015242610140820152600161016082015260006101808201528260005260076020526040600020815181556001810160018060a01b036020840151166001600160601b0360a01b82541617905560408201518051906001600160401b038211610adf5781906107f1600285015461167b565b601f8111610c9c575b50602090601f8311600114610c2a57600092610c1f575b50508160011b916000199060031b1c19161760028201555b60608201518051906001600160401b038211610adf57819061084e600385015461167b565b601f8111610bea575b50602090601f8311600114610b7857600092610b6d575b50508160011b916000199060031b1c19161760038201555b6080820151805190600160401b8211610adf576004830154826004850155808310610af5575b5060200190600483016000526020600020916000905b8282106109bf5760208888817f2b16472d368a21d3632b09235c4d2989f44ea2e60b657706abe43252046f334a8d8b600b8c60a0830151600582015560c0830151600682015560e0830151600782015561010083015160088201556101208301516009820155610140830151600a820155019061016081015115159060ff61ff006101808554930151151560081b1692169061ffff19161717905533600052600886528260406000205561097a606435600654611917565b6006558360405191604083528160408401526060830137600060608583010152606435868201526060813395601f80199101168101030190a360018055604051908152f35b80518051906001600160401b038211610adf576109dc865461167b565b601f8111610aa2575b50602090601f8311600114610a32579282600194936020938695600092610a27575b5050600019600383901b1c191690841b1787555b019401910190926108c2565b015190508e80610a07565b908660005260206000209160005b601f1985168110610a8a575083602093600196938796938794601f19811610610a71575b505050811b018755610a1b565b015160001960f88460031b161c191690558e8080610a64565b91926020600181928685015181550194019201610a40565b610acf90876000526020600020601f850160051c81019160208610610ad5575b601f0160051c0190611900565b8b6109e5565b9091508190610ac2565b634e487b7160e01b600052604160045260246000fd5b600484016000526020600020908382015b8183018110610b165750506108ac565b80610b236001925461167b565b80610b30575b5001610b06565b601f81118314610b465750600081555b8b610b29565b600090828252610b64601f60208420920160051c8201858301611900565b81835555610b40565b01519050878061086e565b9250600384016000526020600020906000935b601f1984168510610bcf576001945083601f19811610610bb6575b505050811b016003820155610886565b015160001960f88460031b161c19169055878080610ba6565b81810151835560209485019460019093019290910190610b8b565b610c1990600386016000526020600020601f850160051c81019160208610610ad557601f0160051c0190611900565b88610857565b015190508780610811565b9250600284016000526020600020906000935b601f1984168510610c81576001945083601f19811610610c68575b505050811b016002820155610829565b015160001960f88460031b161c19169055878080610c58565b81810151835560209485019460019093019290910190610c3d565b610ccb90600286016000526020600020601f850160051c81019160208610610ad557601f0160051c0190611900565b886107fa565b81356001600160401b0381116101d05736604382604435010112156101d057602091610d0e839236906044602482823501013591813501016118a3565b81520191019061073c565b60405163da041bdf60e01b8152600490fd5b346101d057610d39366117f3565b90336000526020600a815260ff6040600020541615610f80576127108311610f6e578160005260078152604060002080541561032957600681018054600981029080820460091490151715610f5857610d9486600a92611917565b04905582600052600982526040600020604051610db0816116b5565b42815283810186815260408201923384528054600160401b811015610adf57610dde91600182018155611836565b919091610f4257600292518255516001820155019060018060a01b039051166001600160601b0360a01b82541617905561232884109081610f2f575b50610e4d575b7f017daf33e98eba2e86dd4300c1ae589a09e88ddd55811feeec87955173078b14906040519384523393a3005b6040519060408201918083106001600160401b03841117610adf577fe6688b7297557ade8fa95e3e4815664800aa3a1cdae65dcfebc2ae7cc2ae822284917f017daf33e98eba2e86dd4300c1ae589a09e88ddd55811feeec87955173078b1494604052600a8152694c6f7720757074696d6560b01b8482015282600052600784526040600020600b6005820191825492610eeb600a85048095611947565b90550161010061ffff19825416179055610f0781600654611947565b600655610f25604051928392835260408784015260408301906117b3565b0390a29050610e20565b60ff9150600b015460081c161584610e1a565b634e487b7160e01b600052600060045260246000fd5b634e487b7160e01b600052601160045260246000fd5b604051636d5ccc3160e11b8152600490fd5b604051631c833d8160e21b8152600490fd5b346101d05760003660031901126101d057610fab611868565b600080546001600160a01b0319811682556001600160a01b03167f8be0079c531659141344cd1fd0a4f28419497f9722a3daafe3b4186f6b6457e08280a3005b346101d05760003660031901126101d0576020600554604051908152f35b346101d05760203660031901126101d0576004356001600160a01b038116908190036101d057611037611868565b6000908152600a60205260409020805460ff19169055005b346101d05760203660031901126101d0576000610180604051611071816116d0565b82815282602082015260606040820152606080820152606060808201528260a08201528260c08201528260e082015282610100820152826101208201528261014082015282610160820152015260043560005260076020526040600020604051906110db826116d0565b8054825260018101546001600160a01b031660208301526110fe6002820161170d565b604083015261110f6003820161170d565b6060830152600481018054611123816118e9565b9161113160405193846116ec565b818352602083019060005260206000206000915b8383106112c9578660ff600b88886080850152600581015460a0850152600681015460c0850152600781015460e085015260088101546101008501526009810154610120850152600a8101546101408501520154818116151561016084015260081c161515610180820152604051602081528151602082015260018060a01b0360208301511660408201526112046111ee60408401516101a060608501526101c08401906117b3565b6060840151838203601f190160808501526117b3565b608083015190601f198382030160a0840152815180825260208201916020808360051b8301019401926000915b83831061129c578680876101808b60a081015160c085015260c081015160e085015260e0810151610100850152610100810151610120850152610120810151610140850152610140810151610160850152610160810151151582850152015115156101a08301520390f35b90919293946020806112ba600193601f1986820301875289516117b3565b97019301930191939290611231565b6001602081926112d88561170d565b815201920192019190611145565b346101d05760203660031901126101d05760043580600052600760205260406000208054156103295760018101546001600160a01b0316330361031757600b01805460ff191690557f21f8438182d8680a10580beb2bd887e639299b4354f2eef7144fddf6a63e8994600080a2005b346101d05760203660031901126101d05760043560005260076020526020604060002080549060ff60018060a01b036001830154166113966002840161170d565b926113a36003820161170d565b9360058201549460068301546007840154906113ff6008860154936113f1600988015496600b600a8a0154990154996040519e8f9e8f908152015260408d61018091829101528d01906117b3565b908b820360608d01526117b3565b9760808a015260a089015260c088015260e0870152610100860152610120850152818116151561014085015260081c1615156101608301520390f35b346101d0576020806003193601126101d057600435600052600981526040600020908154611468816118e9565b9061147660405192836116ec565b8082528282018094600052836000206000915b8383106114e85760408051878152865181890181905289928201908960005b8281106114b55784840385f35b85518051855280830151858401526040908101516001600160a01b031690850152948101946060909301926001016114a8565b6003866001926040516114fa816116b5565b855481528486015483820152848060a01b036002870154166040820152815201920192019190611489565b346101d05760203660031901126101d05760043580600052600760205260406000208054156103295760018101546001600160a01b03163303610317576005810154600254116102fa57600b01805460ff8160081c166115af5760ff191660011790557fd42a25a5289119b651d3368d6bc8d775a795624bfc96eafc646da679094c3543600080a2005b604051631cea000760e31b8152600490fd5b346101d05760203660031901126101d0576004356001600160a01b038116908190036101d057600052600a602052602060ff604060002054166040519015158152f35b346101d05760203660031901126101d05761161d611868565b600435600255005b346101d05760203660031901126101d05761163e611868565b61164c600435600554611917565b600555005b346101d05760203660031901126101d05761166a611924565b611675600435611954565b60018055005b90600182811c921680156116ab575b602083101461169557565b634e487b7160e01b600052602260045260246000fd5b91607f169161168a565b606081019081106001600160401b03821117610adf57604052565b6101a081019081106001600160401b03821117610adf57604052565b90601f801991011681019081106001600160401b03821117610adf57604052565b90604051918260008254926117218461167b565b908184526001948581169081600014611790575060011461174d575b505061174b925003836116ec565b565b9093915060005260209081600020936000915b81831061177857505061174b9350820101388061173d565b85548884018501529485019487945091830191611760565b91505061174b94506020925060ff191682840152151560051b820101388061173d565b919082519283825260005b8481106117df575050826000602080949584010152601f8019910116010190565b6020818301810151848301820152016117be565b60409060031901126101d0576004359060243590565b9181601f840112156101d0578235916001600160401b0383116101d057602083818601950101116101d057565b8054821015611852576000526003602060002091020190600090565b634e487b7160e01b600052603260045260246000fd5b6000546001600160a01b0316330361187c57565b60405163118cdaa760e01b8152336004820152602490fd5b6000198114610f585760010190565b9291926001600160401b038211610adf57604051916118cc601f8201601f1916602001846116ec565b8294818452818301116101d0578281602093846000960137010152565b6001600160401b038111610adf5760051b60200190565b81811061190b575050565b60008155600101611900565b91908201809211610f5857565b600260015414611935576002600155565b604051633ee5aeb560e01b8152600490fd5b91908203918211610f5857565b80600052600760205260409081600020805415611a1c5760018101546001600160a01b03163303611a0b5760ff600b82015460081c166119fa576009019182549283156119f45783600554106119e357600090556119b483600554611947565b600555519182527f24b5efa61dd1cfc659205a97fb8ed868f3cb8c81922bab2b96423e5de1de2cb760203393a3565b8151633270436b60e01b8152600490fd5b50505050565b8251631cea000760e31b8152600490fd5b82516342f536e160e11b8152600490fd5b825163b1cd090360e01b8152600490fd5b6000908152602060078152604082209060405190611a4a826116d0565b825482526001808401546001600160a01b031682840152611a6d6002850161170d565b6040840152611a7e6003850161170d565b606084015260048401805490611a93826118e9565b93611aa160405195866116ec565b82855280850191885280882088925b848410611b76575050505050506080820152600582015460a0820152600682015460c0820152600782015460e082019181835261018060ff600b600887015496876101008601526009810154610120860152600a8101546101408601520154818116151561016085015260081c16151591015215611b715761271091828102928184041490151715611b5d5751918215611b4957500490565b634e487b7160e01b81526012600452602490fd5b634e487b7160e01b83526011600452602483fd5b505090565b85838192611b838561170d565b815201920193019290611ab056fea2646970667358221220f7efbfa5fad3fa6cab1c45c24d7b18ac6d1b42c00849472cb9be818248353c4a64736f6c63430008140033",
  "linkReferences": {},
  "deployedLinkReferences": {}
}